{
  "_format": "hh-sol-artifact-1",
  "contractName": "Authenticator",
  "sourceName": "contracts/utils/Authenticator.sol",
  "abi": [
    {
      "inputs": [],
      "stateMutability": "nonpayable",
      "type": "constructor"
    },
    {
      "inputs": [
        {
          "internalType": "address",
          "name": "_address",
          "type": "address"
        }
      ],
      "name": "checkAuth",
      "outputs": [
        {
          "internalType": "enum AuthType",
          "name": "",
          "type": "uint8"
        }
      ],
      "stateMutability": "view",
      "type": "function"
    },
    {
      "inputs": [
        {
          "internalType": "address",
          "name": "_address",
          "type": "address"
        },
        {
          "internalType": "enum AuthType",
          "name": "authType",
          "type": "uint8"
        }
      ],
      "name": "createDID",
      "outputs": [],
      "stateMutability": "nonpayable",
      "type": "function"
    }
  ],
  "bytecode": "0x608060405234801561001057600080fd5b5060016000803373ffffffffffffffffffffffffffffffffffffffff1673ffffffffffffffffffffffffffffffffffffffff16815260200190815260200160002060006101000a81548160ff02191690831515021790555061066a806100776000396000f3fe608060405234801561001057600080fd5b50600436106100365760003560e01c80634b1650901461003b5780637a4b9b8b1461006b575b600080fd5b61005560048036038101906100509190610427565b610087565b60405161006291906104cb565b60405180910390f35b6100856004803603810190610080919061050b565b61015c565b005b60008073ffffffffffffffffffffffffffffffffffffffff168273ffffffffffffffffffffffffffffffffffffffff1614156100f8576040517f08c379a00000000000000000000000000000000000000000000000000000000081526004016100ef906105a8565b60405180910390fd5b6000808373ffffffffffffffffffffffffffffffffffffffff1673ffffffffffffffffffffffffffffffffffffffff16815260200190815260200160002060009054906101000a900460ff16156101525760039050610157565b600090505b919050565b600073ffffffffffffffffffffffffffffffffffffffff168273ffffffffffffffffffffffffffffffffffffffff1614156101cc576040517f08c379a00000000000000000000000000000000000000000000000000000000081526004016101c3906105a8565b60405180910390fd5b600115156000803373ffffffffffffffffffffffffffffffffffffffff1673ffffffffffffffffffffffffffffffffffffffff16815260200190815260200160002060009054906101000a900460ff1615151461025e576040517f08c379a000000000000000000000000000000000000000000000000000000000815260040161025590610614565b60405180910390fd5b6000808373ffffffffffffffffffffffffffffffffffffffff1673ffffffffffffffffffffffffffffffffffffffff16815260200190815260200160002060009054906101000a900460ff1680156102da57506003808111156102c4576102c3610454565b5b8160038111156102d7576102d6610454565b5b14155b1561033b5760008060008473ffffffffffffffffffffffffffffffffffffffff1673ffffffffffffffffffffffffffffffffffffffff16815260200190815260200160002060006101000a81548160ff0219169083151502179055506103c0565b60038081111561034e5761034d610454565b5b81600381111561036157610360610454565b5b14156103bf5760016000808473ffffffffffffffffffffffffffffffffffffffff1673ffffffffffffffffffffffffffffffffffffffff16815260200190815260200160002060006101000a81548160ff0219169083151502179055505b5b5050565b600080fd5b600073ffffffffffffffffffffffffffffffffffffffff82169050919050565b60006103f4826103c9565b9050919050565b610404816103e9565b811461040f57600080fd5b50565b600081359050610421816103fb565b92915050565b60006020828403121561043d5761043c6103c4565b5b600061044b84828501610412565b91505092915050565b7f4e487b7100000000000000000000000000000000000000000000000000000000600052602160045260246000fd5b6004811061049457610493610454565b5b50565b60008190506104a582610483565b919050565b60006104b582610497565b9050919050565b6104c5816104aa565b82525050565b60006020820190506104e060008301846104bc565b92915050565b600481106104f357600080fd5b50565b600081359050610505816104e6565b92915050565b60008060408385031215610522576105216103c4565b5b600061053085828601610412565b9250506020610541858286016104f6565b9150509250929050565b600082825260208201905092915050565b7f41646472657373207a65726f206973206e6f7420616c6c6f7765640000000000600082015250565b6000610592601b8361054b565b915061059d8261055c565b602082019050919050565b600060208201905081810360008301526105c181610585565b9050919050565b7f41646472657373206973206e6f74206865616c74685265636f72640000000000600082015250565b60006105fe601b8361054b565b9150610609826105c8565b602082019050919050565b6000602082019050818103600083015261062d816105f1565b905091905056fea2646970667358221220ad6262db565264366cf24dd3cca53c58d90b9a169d399ed131f65cc9780de73a64736f6c63430008090033",
  "linkReferences": {},
  "deployedLinkReferences": {}
}