{
  "_format": "hh-sol-artifact-1",
  "contractName": "Prescription",
  "sourceName": "contracts/lockdata/Prescription.sol",
  "abi": [
    {
      "inputs": [
        {
          "internalType": "address",
          "name": "_authAddress",
          "type": "address"
        }
      ],
      "stateMutability": "nonpayable",
      "type": "constructor"
    },
    {
      "anonymous": false,
      "inputs": [
        {
          "indexed": true,
          "internalType": "address",
          "name": "owner",
          "type": "address"
        },
        {
          "indexed": true,
          "internalType": "address",
          "name": "approved",
          "type": "address"
        },
        {
          "indexed": true,
          "internalType": "uint256",
          "name": "tokenId",
          "type": "uint256"
        }
      ],
      "name": "Approval",
      "type": "event"
    },
    {
      "anonymous": false,
      "inputs": [
        {
          "indexed": true,
          "internalType": "address",
          "name": "owner",
          "type": "address"
        },
        {
          "indexed": true,
          "internalType": "address",
          "name": "operator",
          "type": "address"
        },
        {
          "indexed": false,
          "internalType": "bool",
          "name": "approved",
          "type": "bool"
        }
      ],
      "name": "ApprovalForAll",
      "type": "event"
    },
    {
      "anonymous": false,
      "inputs": [
        {
          "indexed": true,
          "internalType": "address",
          "name": "previousOwner",
          "type": "address"
        },
        {
          "indexed": true,
          "internalType": "address",
          "name": "newOwner",
          "type": "address"
        }
      ],
      "name": "OwnershipTransferred",
      "type": "event"
    },
    {
      "anonymous": false,
      "inputs": [
        {
          "indexed": true,
          "internalType": "address",
          "name": "from",
          "type": "address"
        },
        {
          "indexed": true,
          "internalType": "address",
          "name": "to",
          "type": "address"
        },
        {
          "indexed": true,
          "internalType": "uint256",
          "name": "tokenId",
          "type": "uint256"
        }
      ],
      "name": "Transfer",
      "type": "event"
    },
    {
      "inputs": [
        {
          "internalType": "uint256",
          "name": "",
          "type": "uint256"
        }
      ],
      "name": "_PrescriptionHash",
      "outputs": [
        {
          "internalType": "bytes32",
          "name": "",
          "type": "bytes32"
        }
      ],
      "stateMutability": "view",
      "type": "function"
    },
    {
      "inputs": [
        {
          "internalType": "address",
          "name": "to",
          "type": "address"
        },
        {
          "internalType": "uint256",
          "name": "tokenId",
          "type": "uint256"
        }
      ],
      "name": "approve",
      "outputs": [],
      "stateMutability": "nonpayable",
      "type": "function"
    },
    {
      "inputs": [
        {
          "internalType": "address",
          "name": "owner",
          "type": "address"
        }
      ],
      "name": "balanceOf",
      "outputs": [
        {
          "internalType": "uint256",
          "name": "",
          "type": "uint256"
        }
      ],
      "stateMutability": "view",
      "type": "function"
    },
    {
      "inputs": [
        {
          "internalType": "uint256",
          "name": "PrescriptionId",
          "type": "uint256"
        },
        {
          "internalType": "bytes32",
          "name": "hashValue",
          "type": "bytes32"
        }
      ],
      "name": "checkDataIntegrity",
      "outputs": [
        {
          "internalType": "bool",
          "name": "",
          "type": "bool"
        }
      ],
      "stateMutability": "view",
      "type": "function"
    },
    {
      "inputs": [
        {
          "internalType": "uint256",
          "name": "prescriptionId",
          "type": "uint256"
        },
        {
          "internalType": "address",
          "name": "_address",
          "type": "address"
        }
      ],
      "name": "discloseApproval",
      "outputs": [],
      "stateMutability": "nonpayable",
      "type": "function"
    },
    {
      "inputs": [
        {
          "internalType": "uint256",
          "name": "tokenId",
          "type": "uint256"
        }
      ],
      "name": "getApproved",
      "outputs": [
        {
          "internalType": "address",
          "name": "",
          "type": "address"
        }
      ],
      "stateMutability": "view",
      "type": "function"
    },
    {
      "inputs": [
        {
          "internalType": "uint256",
          "name": "prescriptionId",
          "type": "uint256"
        },
        {
          "internalType": "address",
          "name": "_address",
          "type": "address"
        }
      ],
      "name": "getDiscloseApproval",
      "outputs": [
        {
          "internalType": "bool",
          "name": "",
          "type": "bool"
        }
      ],
      "stateMutability": "view",
      "type": "function"
    },
    {
      "inputs": [
        {
          "internalType": "uint256",
          "name": "tokenId",
          "type": "uint256"
        }
      ],
      "name": "getHashValue",
      "outputs": [
        {
          "internalType": "bytes32",
          "name": "",
          "type": "bytes32"
        }
      ],
      "stateMutability": "view",
      "type": "function"
    },
    {
      "inputs": [],
      "name": "getHealthRecordAddress",
      "outputs": [
        {
          "internalType": "address",
          "name": "",
          "type": "address"
        }
      ],
      "stateMutability": "view",
      "type": "function"
    },
    {
      "inputs": [
        {
          "internalType": "uint256",
          "name": "PrescriptionId",
          "type": "uint256"
        }
      ],
      "name": "getPrescriptionHistory",
      "outputs": [
        {
          "internalType": "uint256[]",
          "name": "",
          "type": "uint256[]"
        }
      ],
      "stateMutability": "view",
      "type": "function"
    },
    {
      "inputs": [
        {
          "internalType": "address",
          "name": "owner",
          "type": "address"
        },
        {
          "internalType": "address",
          "name": "operator",
          "type": "address"
        }
      ],
      "name": "isApprovedForAll",
      "outputs": [
        {
          "internalType": "bool",
          "name": "",
          "type": "bool"
        }
      ],
      "stateMutability": "view",
      "type": "function"
    },
    {
      "inputs": [
        {
          "internalType": "bytes32",
          "name": "hashValue",
          "type": "bytes32"
        },
        {
          "internalType": "string",
          "name": "uri",
          "type": "string"
        },
        {
          "internalType": "string",
          "name": "data",
          "type": "string"
        }
      ],
      "name": "mint",
      "outputs": [
        {
          "internalType": "uint256",
          "name": "",
          "type": "uint256"
        }
      ],
      "stateMutability": "nonpayable",
      "type": "function"
    },
    {
      "inputs": [],
      "name": "name",
      "outputs": [
        {
          "internalType": "string",
          "name": "",
          "type": "string"
        }
      ],
      "stateMutability": "view",
      "type": "function"
    },
    {
      "inputs": [],
      "name": "owner",
      "outputs": [
        {
          "internalType": "address",
          "name": "",
          "type": "address"
        }
      ],
      "stateMutability": "view",
      "type": "function"
    },
    {
      "inputs": [
        {
          "internalType": "uint256",
          "name": "tokenId",
          "type": "uint256"
        }
      ],
      "name": "ownerOf",
      "outputs": [
        {
          "internalType": "address",
          "name": "",
          "type": "address"
        }
      ],
      "stateMutability": "view",
      "type": "function"
    },
    {
      "inputs": [],
      "name": "renounceOwnership",
      "outputs": [],
      "stateMutability": "nonpayable",
      "type": "function"
    },
    {
      "inputs": [
        {
          "internalType": "address",
          "name": "to",
          "type": "address"
        },
        {
          "internalType": "uint256",
          "name": "tokenId",
          "type": "uint256"
        }
      ],
      "name": "safeMint",
      "outputs": [],
      "stateMutability": "nonpayable",
      "type": "function"
    },
    {
      "inputs": [
        {
          "internalType": "address",
          "name": "from",
          "type": "address"
        },
        {
          "internalType": "address",
          "name": "to",
          "type": "address"
        },
        {
          "internalType": "uint256",
          "name": "tokenId",
          "type": "uint256"
        }
      ],
      "name": "safeTransferFrom",
      "outputs": [],
      "stateMutability": "nonpayable",
      "type": "function"
    },
    {
      "inputs": [
        {
          "internalType": "address",
          "name": "from",
          "type": "address"
        },
        {
          "internalType": "address",
          "name": "to",
          "type": "address"
        },
        {
          "internalType": "uint256",
          "name": "tokenId",
          "type": "uint256"
        },
        {
          "internalType": "bytes",
          "name": "data",
          "type": "bytes"
        }
      ],
      "name": "safeTransferFrom",
      "outputs": [],
      "stateMutability": "nonpayable",
      "type": "function"
    },
    {
      "inputs": [
        {
          "internalType": "address",
          "name": "operator",
          "type": "address"
        },
        {
          "internalType": "bool",
          "name": "approved",
          "type": "bool"
        }
      ],
      "name": "setApprovalForAll",
      "outputs": [],
      "stateMutability": "nonpayable",
      "type": "function"
    },
    {
      "inputs": [
        {
          "internalType": "address",
          "name": "_address",
          "type": "address"
        }
      ],
      "name": "setHealthRecordAddress",
      "outputs": [],
      "stateMutability": "nonpayable",
      "type": "function"
    },
    {
      "inputs": [
        {
          "internalType": "uint256[]",
          "name": "PrescriptionIds",
          "type": "uint256[]"
        },
        {
          "internalType": "address",
          "name": "senderAddress",
          "type": "address"
        }
      ],
      "name": "setLockPrescription",
      "outputs": [],
      "stateMutability": "nonpayable",
      "type": "function"
    },
    {
      "inputs": [
        {
          "internalType": "bytes4",
          "name": "interfaceId",
          "type": "bytes4"
        }
      ],
      "name": "supportsInterface",
      "outputs": [
        {
          "internalType": "bool",
          "name": "",
          "type": "bool"
        }
      ],
      "stateMutability": "view",
      "type": "function"
    },
    {
      "inputs": [],
      "name": "symbol",
      "outputs": [
        {
          "internalType": "string",
          "name": "",
          "type": "string"
        }
      ],
      "stateMutability": "view",
      "type": "function"
    },
    {
      "inputs": [
        {
          "internalType": "uint256",
          "name": "index",
          "type": "uint256"
        }
      ],
      "name": "tokenByIndex",
      "outputs": [
        {
          "internalType": "uint256",
          "name": "",
          "type": "uint256"
        }
      ],
      "stateMutability": "view",
      "type": "function"
    },
    {
      "inputs": [
        {
          "internalType": "address",
          "name": "owner",
          "type": "address"
        },
        {
          "internalType": "uint256",
          "name": "index",
          "type": "uint256"
        }
      ],
      "name": "tokenOfOwnerByIndex",
      "outputs": [
        {
          "internalType": "uint256",
          "name": "",
          "type": "uint256"
        }
      ],
      "stateMutability": "view",
      "type": "function"
    },
    {
      "inputs": [
        {
          "internalType": "uint256",
          "name": "tokenId",
          "type": "uint256"
        }
      ],
      "name": "tokenURI",
      "outputs": [
        {
          "internalType": "string",
          "name": "",
          "type": "string"
        }
      ],
      "stateMutability": "view",
      "type": "function"
    },
    {
      "inputs": [],
      "name": "totalSupply",
      "outputs": [
        {
          "internalType": "uint256",
          "name": "",
          "type": "uint256"
        }
      ],
      "stateMutability": "view",
      "type": "function"
    },
    {
      "inputs": [
        {
          "internalType": "address",
          "name": "from",
          "type": "address"
        },
        {
          "internalType": "address",
          "name": "to",
          "type": "address"
        },
        {
          "internalType": "uint256",
          "name": "tokenId",
          "type": "uint256"
        }
      ],
      "name": "transferFrom",
      "outputs": [],
      "stateMutability": "nonpayable",
      "type": "function"
    },
    {
      "inputs": [
        {
          "internalType": "address",
          "name": "newOwner",
          "type": "address"
        }
      ],
      "name": "transferOwnership",
      "outputs": [],
      "stateMutability": "nonpayable",
      "type": "function"
    },
    {
      "inputs": [
        {
          "internalType": "uint256",
          "name": "PrescriptionId",
          "type": "uint256"
        },
        {
          "internalType": "bytes32",
          "name": "hashValue",
          "type": "bytes32"
        },
        {
          "internalType": "string",
          "name": "uri",
          "type": "string"
        },
        {
          "internalType": "string",
          "name": "data",
          "type": "string"
        }
      ],
      "name": "updatePrescription",
      "outputs": [],
      "stateMutability": "nonpayable",
      "type": "function"
    }
  ],
  "bytecode": "0x60806040523480156200001157600080fd5b5060405162004ca938038062004ca98339818101604052810190620000379190620003a2565b6040518060400160405280600c81526020017f507265736372697074696f6e00000000000000000000000000000000000000008152506040518060400160405280600281526020017f5053000000000000000000000000000000000000000000000000000000000000815250828083838160009080519060200190620000bf92919062000288565b508060019080519060200190620000d892919062000288565b505050620000fb620000ef620001ba60201b60201c565b620001c260201b60201c565b600073ffffffffffffffffffffffffffffffffffffffff168173ffffffffffffffffffffffffffffffffffffffff1614156200016e576040517f08c379a0000000000000000000000000000000000000000000000000000000008152600401620001659062000435565b60405180910390fd5b80600c60006101000a81548173ffffffffffffffffffffffffffffffffffffffff021916908373ffffffffffffffffffffffffffffffffffffffff1602179055505050505050620004bc565b600033905090565b6000600b60009054906101000a900473ffffffffffffffffffffffffffffffffffffffff16905081600b60006101000a81548173ffffffffffffffffffffffffffffffffffffffff021916908373ffffffffffffffffffffffffffffffffffffffff1602179055508173ffffffffffffffffffffffffffffffffffffffff168173ffffffffffffffffffffffffffffffffffffffff167f8be0079c531659141344cd1fd0a4f28419497f9722a3daafe3b4186f6b6457e060405160405180910390a35050565b828054620002969062000486565b90600052602060002090601f016020900481019282620002ba576000855562000306565b82601f10620002d557805160ff191683800117855562000306565b8280016001018555821562000306579182015b8281111562000305578251825591602001919060010190620002e8565b5b50905062000315919062000319565b5090565b5b80821115620003345760008160009055506001016200031a565b5090565b600080fd5b600073ffffffffffffffffffffffffffffffffffffffff82169050919050565b60006200036a826200033d565b9050919050565b6200037c816200035d565b81146200038857600080fd5b50565b6000815190506200039c8162000371565b92915050565b600060208284031215620003bb57620003ba62000338565b5b6000620003cb848285016200038b565b91505092915050565b600082825260208201905092915050565b7f41646472657373207a65726f206973206e6f7420616c6c6f7765640000000000600082015250565b60006200041d601b83620003d4565b91506200042a82620003e5565b602082019050919050565b6000602082019050818103600083015262000450816200040e565b9050919050565b7f4e487b7100000000000000000000000000000000000000000000000000000000600052602260045260246000fd5b600060028204905060018216806200049f57607f821691505b60208210811415620004b657620004b562000457565b5b50919050565b6147dd80620004cc6000396000f3fe608060405234801561001057600080fd5b50600436106101e55760003560e01c806370a082311161010f578063b88d4fde116100a2578063e5ec126311610071578063e5ec1263146105b2578063e985e9c5146105e2578063f2fde38b14610612578063fb3a7b981461062e576101e5565b8063b88d4fde1461051a578063c4e080c514610536578063c87b56dd14610566578063d8b3c18414610596576101e5565b806395d89b41116100de57806395d89b4114610494578063a1448194146104b2578063a22cb465146104ce578063a92c2adf146104ea576101e5565b806370a0823114610420578063715018a614610450578063847e56301461045a5780638da5cb5b14610476576101e5565b806318eb210d1161018757806342842e0e1161015657806342842e0e146103745780634f6ccce7146103905780636352211e146103c05780636fbf29e6146103f0576101e5565b806318eb210d146102f057806323b872dd1461030c57806329dd8af0146103285780632f745c5914610344576101e5565b8063081812fc116101c3578063081812fc14610268578063095ea7b31461029857806309eca274146102b457806318160ddd146102d2576101e5565b806301ffc9a7146101ea57806306fdde031461021a57806307f84f8d14610238575b600080fd5b61020460048036038101906101ff9190612d55565b61065e565b6040516102119190612d9d565b60405180910390f35b610222610670565b60405161022f9190612e51565b60405180910390f35b610252600480360381019061024d9190612ea9565b610702565b60405161025f9190612f94565b60405180910390f35b610282600480360381019061027d9190612ea9565b61076d565b60405161028f9190612ff7565b60405180910390f35b6102b260048036038101906102ad919061303e565b6107b3565b005b6102bc6108cb565b6040516102c99190612ff7565b60405180910390f35b6102da6108f5565b6040516102e7919061308d565b60405180910390f35b61030a600480360381019061030591906130a8565b610902565b005b610326600480360381019061032191906130e8565b6109ff565b005b610342600480360381019061033d919061313b565b610a5f565b005b61035e6004803603810190610359919061303e565b610b33565b60405161036b919061308d565b60405180910390f35b61038e600480360381019061038991906130e8565b610bd8565b005b6103aa60048036038101906103a59190612ea9565b610bf8565b6040516103b7919061308d565b60405180910390f35b6103da60048036038101906103d59190612ea9565b610c69565b6040516103e79190612ff7565b60405180910390f35b61040a60048036038101906104059190612ea9565b610d1b565b6040516104179190613181565b60405180910390f35b61043a6004803603810190610435919061313b565b610d38565b604051610447919061308d565b60405180910390f35b610458610df0565b005b610474600480360381019061046f91906132e4565b610e04565b005b61047e611018565b60405161048b9190612ff7565b60405180910390f35b61049c611042565b6040516104a99190612e51565b60405180910390f35b6104cc60048036038101906104c7919061303e565b6110d4565b005b6104e860048036038101906104e3919061336c565b6110ea565b005b61050460048036038101906104ff919061348d565b611100565b604051610511919061308d565b60405180910390f35b610534600480360381019061052f91906135b9565b611200565b005b610550600480360381019061054b919061363c565b611262565b60405161055d9190612d9d565b60405180910390f35b610580600480360381019061057b9190612ea9565b6112d8565b60405161058d9190612e51565b60405180910390f35b6105b060048036038101906105ab919061367c565b6112ea565b005b6105cc60048036038101906105c79190612ea9565b61155d565b6040516105d99190613181565b60405180910390f35b6105fc60048036038101906105f7919061371b565b611575565b6040516106099190612d9d565b60405180910390f35b61062c6004803603810190610627919061313b565b611609565b005b610648600480360381019061064391906130a8565b61168d565b6040516106559190612d9d565b60405180910390f35b6000610669826116f5565b9050919050565b60606000805461067f9061378a565b80601f01602080910402602001604051908101604052809291908181526020018280546106ab9061378a565b80156106f85780601f106106cd576101008083540402835291602001916106f8565b820191906000526020600020905b8154815290600101906020018083116106db57829003601f168201915b5050505050905090565b6060600e600083815260200190815260200160002080548060200260200160405190810160405280929190818152602001828054801561076157602002820191906000526020600020905b81548152602001906001019080831161074d575b50505050509050919050565b60006107788261176f565b6004600083815260200190815260200160002060009054906101000a900473ffffffffffffffffffffffffffffffffffffffff169050919050565b60006107be82610c69565b90508073ffffffffffffffffffffffffffffffffffffffff168373ffffffffffffffffffffffffffffffffffffffff16141561082f576040517f08c379a00000000000000000000000000000000000000000000000000000000081526004016108269061382e565b60405180910390fd5b8073ffffffffffffffffffffffffffffffffffffffff1661084e6117ba565b73ffffffffffffffffffffffffffffffffffffffff16148061087d575061087c816108776117ba565b611575565b5b6108bc576040517f08c379a00000000000000000000000000000000000000000000000000000000081526004016108b3906138c0565b60405180910390fd5b6108c683836117c2565b505050565b6000601360009054906101000a900473ffffffffffffffffffffffffffffffffffffffff16905090565b6000600980549050905090565b601360009054906101000a900473ffffffffffffffffffffffffffffffffffffffff1673ffffffffffffffffffffffffffffffffffffffff163373ffffffffffffffffffffffffffffffffffffffff1614610992576040517f08c379a000000000000000000000000000000000000000000000000000000000815260040161098990613952565b60405180910390fd5b60016012600084815260200190815260200160002060008373ffffffffffffffffffffffffffffffffffffffff1673ffffffffffffffffffffffffffffffffffffffff16815260200190815260200160002060006101000a81548160ff0219169083151502179055505050565b610a10610a0a6117ba565b8261187b565b610a4f576040517f08c379a0000000000000000000000000000000000000000000000000000000008152600401610a46906139e4565b60405180910390fd5b610a5a838383611910565b505050565b601360009054906101000a900473ffffffffffffffffffffffffffffffffffffffff1673ffffffffffffffffffffffffffffffffffffffff163373ffffffffffffffffffffffffffffffffffffffff1614610aef576040517f08c379a0000000000000000000000000000000000000000000000000000000008152600401610ae690613952565b60405180910390fd5b80601360006101000a81548173ffffffffffffffffffffffffffffffffffffffff021916908373ffffffffffffffffffffffffffffffffffffffff16021790555050565b6000610b3e83610d38565b8210610b7f576040517f08c379a0000000000000000000000000000000000000000000000000000000008152600401610b7690613a76565b60405180910390fd5b600760008473ffffffffffffffffffffffffffffffffffffffff1673ffffffffffffffffffffffffffffffffffffffff168152602001908152602001600020600083815260200190815260200160002054905092915050565b610bf383838360405180602001604052806000815250611200565b505050565b6000610c026108f5565b8210610c43576040517f08c379a0000000000000000000000000000000000000000000000000000000008152600401610c3a90613b08565b60405180910390fd5b60098281548110610c5757610c56613b28565b5b90600052602060002001549050919050565b6000806002600084815260200190815260200160002060009054906101000a900473ffffffffffffffffffffffffffffffffffffffff169050600073ffffffffffffffffffffffffffffffffffffffff168173ffffffffffffffffffffffffffffffffffffffff161415610d12576040517f08c379a0000000000000000000000000000000000000000000000000000000008152600401610d0990613ba3565b60405180910390fd5b80915050919050565b6000600f6000838152602001908152602001600020549050919050565b60008073ffffffffffffffffffffffffffffffffffffffff168273ffffffffffffffffffffffffffffffffffffffff161415610da9576040517f08c379a0000000000000000000000000000000000000000000000000000000008152600401610da090613c35565b60405180910390fd5b600360008373ffffffffffffffffffffffffffffffffffffffff1673ffffffffffffffffffffffffffffffffffffffff168152602001908152602001600020549050919050565b610df8611b77565b610e026000611bf5565b565b818160005b8251811015610fab5760116000848381518110610e2957610e28613b28565b5b6020026020010151815260200190815260200160002060009054906101000a900460ff1615610e8d576040517f08c379a0000000000000000000000000000000000000000000000000000000008152600401610e8490613ca1565b60405180910390fd5b8173ffffffffffffffffffffffffffffffffffffffff16610ec7848381518110610eba57610eb9613b28565b5b6020026020010151610c69565b73ffffffffffffffffffffffffffffffffffffffff1614610f1d576040517f08c379a0000000000000000000000000000000000000000000000000000000008152600401610f1490613d0d565b60405180910390fd5b60106000848381518110610f3457610f33613b28565b5b6020026020010151815260200190815260200160002060009054906101000a900460ff1615610f98576040517f08c379a0000000000000000000000000000000000000000000000000000000008152600401610f8f90613d79565b60405180910390fd5b8080610fa390613dc8565b915050610e09565b5060005b845181101561101157600160116000878481518110610fd157610fd0613b28565b5b6020026020010151815260200190815260200160002060006101000a81548160ff021916908315150217905550808061100990613dc8565b915050610faf565b5050505050565b6000600b60009054906101000a900473ffffffffffffffffffffffffffffffffffffffff16905090565b6060600180546110519061378a565b80601f016020809104026020016040519081016040528092919081815260200182805461107d9061378a565b80156110ca5780601f1061109f576101008083540402835291602001916110ca565b820191906000526020600020905b8154815290600101906020018083116110ad57829003601f168201915b5050505050905090565b6110dc611b77565b6110e68282611cbb565b5050565b6110fc6110f56117ba565b8383611cd9565b5050565b600083826040516020016111149190613e4d565b604051602081830303815290604052805190602001201461116a576040517f08c379a000000000000000000000000000000000000000000000000000000000815260040161116190613eb0565b60405180910390fd5b600061117584611e46565b905084600f600083815260200190815260200160002081905550600e600082815260200190815260200160002081908060018154018082558091505060019003906000526020600020016000909190919091505560006010600083815260200190815260200160002060006101000a81548160ff021916908315150217905550809150509392505050565b61121161120b6117ba565b8361187b565b611250576040517f08c379a0000000000000000000000000000000000000000000000000000000008152600401611247906139e4565b60405180910390fd5b61125c84848484611e84565b50505050565b600080600e60008581526020019081526020016000206001600e60008781526020019081526020016000208054905061129b9190613ed0565b815481106112ac576112ab613b28565b5b9060005260206000200154905082600f6000838152602001908152602001600020541491505092915050565b60606112e382611ee0565b9050919050565b6010600085815260200190815260200160002060009054906101000a900460ff161561134b576040517f08c379a000000000000000000000000000000000000000000000000000000000815260040161134290613f76565b60405180910390fd5b6011600085815260200190815260200160002060009054906101000a900460ff16156113ac576040517f08c379a00000000000000000000000000000000000000000000000000000000081526004016113a390613fe2565b60405180910390fd5b6113b46117ba565b73ffffffffffffffffffffffffffffffffffffffff166113d385610c69565b73ffffffffffffffffffffffffffffffffffffffff1614611429576040517f08c379a000000000000000000000000000000000000000000000000000000000815260040161142090614074565b60405180910390fd5b828160405160200161143b9190613e4d565b6040516020818303038152906040528051906020012014611491576040517f08c379a0000000000000000000000000000000000000000000000000000000008152600401611488906140e0565b60405180910390fd5b600061149c83611e46565b905083600f600083815260200190815260200160002081905550600e600082815260200190815260200160002081908060018154018082558091505060019003906000526020600020016000909190919091505560016010600083815260200190815260200160002060006101000a81548160ff021916908315150217905550600e60008681526020019081526020016000208190806001815401808255809150506001900390600052602060002001600090919091909150555050505050565b600f6020528060005260406000206000915090505481565b6000600560008473ffffffffffffffffffffffffffffffffffffffff1673ffffffffffffffffffffffffffffffffffffffff16815260200190815260200160002060008373ffffffffffffffffffffffffffffffffffffffff1673ffffffffffffffffffffffffffffffffffffffff16815260200190815260200160002060009054906101000a900460ff16905092915050565b611611611b77565b600073ffffffffffffffffffffffffffffffffffffffff168173ffffffffffffffffffffffffffffffffffffffff161415611681576040517f08c379a000000000000000000000000000000000000000000000000000000000815260040161167890614172565b60405180910390fd5b61168a81611bf5565b50565b60006012600084815260200190815260200160002060008373ffffffffffffffffffffffffffffffffffffffff1673ffffffffffffffffffffffffffffffffffffffff16815260200190815260200160002060009054906101000a900460ff16905092915050565b60007f780e9d63000000000000000000000000000000000000000000000000000000007bffffffffffffffffffffffffffffffffffffffffffffffffffffffff1916827bffffffffffffffffffffffffffffffffffffffffffffffffffffffff19161480611768575061176782611ff3565b5b9050919050565b611778816120d5565b6117b7576040517f08c379a00000000000000000000000000000000000000000000000000000000081526004016117ae90613ba3565b60405180910390fd5b50565b600033905090565b816004600083815260200190815260200160002060006101000a81548173ffffffffffffffffffffffffffffffffffffffff021916908373ffffffffffffffffffffffffffffffffffffffff160217905550808273ffffffffffffffffffffffffffffffffffffffff1661183583610c69565b73ffffffffffffffffffffffffffffffffffffffff167f8c5be1e5ebec7d5bd14f71427d1e84f3dd0314c0f7b2291e5b200ac8c7c3b92560405160405180910390a45050565b60008061188783610c69565b90508073ffffffffffffffffffffffffffffffffffffffff168473ffffffffffffffffffffffffffffffffffffffff1614806118c957506118c88185611575565b5b8061190757508373ffffffffffffffffffffffffffffffffffffffff166118ef8461076d565b73ffffffffffffffffffffffffffffffffffffffff16145b91505092915050565b8273ffffffffffffffffffffffffffffffffffffffff1661193082610c69565b73ffffffffffffffffffffffffffffffffffffffff1614611986576040517f08c379a000000000000000000000000000000000000000000000000000000000815260040161197d90614204565b60405180910390fd5b600073ffffffffffffffffffffffffffffffffffffffff168273ffffffffffffffffffffffffffffffffffffffff1614156119f6576040517f08c379a00000000000000000000000000000000000000000000000000000000081526004016119ed90614296565b60405180910390fd5b611a01838383612141565b611a0c6000826117c2565b6001600360008573ffffffffffffffffffffffffffffffffffffffff1673ffffffffffffffffffffffffffffffffffffffff1681526020019081526020016000206000828254611a5c9190613ed0565b925050819055506001600360008473ffffffffffffffffffffffffffffffffffffffff1673ffffffffffffffffffffffffffffffffffffffff1681526020019081526020016000206000828254611ab391906142b6565b92505081905550816002600083815260200190815260200160002060006101000a81548173ffffffffffffffffffffffffffffffffffffffff021916908373ffffffffffffffffffffffffffffffffffffffff160217905550808273ffffffffffffffffffffffffffffffffffffffff168473ffffffffffffffffffffffffffffffffffffffff167fddf252ad1be2c89b69c2b068fc378daa952ba7f163c4a11628f55a4df523b3ef60405160405180910390a4611b72838383612151565b505050565b611b7f6117ba565b73ffffffffffffffffffffffffffffffffffffffff16611b9d611018565b73ffffffffffffffffffffffffffffffffffffffff1614611bf3576040517f08c379a0000000000000000000000000000000000000000000000000000000008152600401611bea90614358565b60405180910390fd5b565b6000600b60009054906101000a900473ffffffffffffffffffffffffffffffffffffffff16905081600b60006101000a81548173ffffffffffffffffffffffffffffffffffffffff021916908373ffffffffffffffffffffffffffffffffffffffff1602179055508173ffffffffffffffffffffffffffffffffffffffff168173ffffffffffffffffffffffffffffffffffffffff167f8be0079c531659141344cd1fd0a4f28419497f9722a3daafe3b4186f6b6457e060405160405180910390a35050565b611cd5828260405180602001604052806000815250612156565b5050565b8173ffffffffffffffffffffffffffffffffffffffff168373ffffffffffffffffffffffffffffffffffffffff161415611d48576040517f08c379a0000000000000000000000000000000000000000000000000000000008152600401611d3f906143c4565b60405180910390fd5b80600560008573ffffffffffffffffffffffffffffffffffffffff1673ffffffffffffffffffffffffffffffffffffffff16815260200190815260200160002060008473ffffffffffffffffffffffffffffffffffffffff1673ffffffffffffffffffffffffffffffffffffffff16815260200190815260200160002060006101000a81548160ff0219169083151502179055508173ffffffffffffffffffffffffffffffffffffffff168373ffffffffffffffffffffffffffffffffffffffff167f17307eab39ab6107e8899845ad3d59bd9653f200f220920489ca2b5937696c3183604051611e399190612d9d565b60405180910390a3505050565b6000611e52600d6121b1565b6000611e5e600d6121c7565b9050611e71611e6b6117ba565b826121d5565b611e7b81846123af565b80915050919050565b611e8f848484611910565b611e9b84848484612423565b611eda576040517f08c379a0000000000000000000000000000000000000000000000000000000008152600401611ed190614456565b60405180910390fd5b50505050565b6060611eeb8261176f565b6000600660008481526020019081526020016000208054611f0b9061378a565b80601f0160208091040260200160405190810160405280929190818152602001828054611f379061378a565b8015611f845780601f10611f5957610100808354040283529160200191611f84565b820191906000526020600020905b815481529060010190602001808311611f6757829003601f168201915b505050505090506000611f956125ba565b9050600081511415611fab578192505050611fee565b600082511115611fe0578082604051602001611fc8929190614476565b60405160208183030381529060405292505050611fee565b611fe9846125d1565b925050505b919050565b60007f80ac58cd000000000000000000000000000000000000000000000000000000007bffffffffffffffffffffffffffffffffffffffffffffffffffffffff1916827bffffffffffffffffffffffffffffffffffffffffffffffffffffffff191614806120be57507f5b5e139f000000000000000000000000000000000000000000000000000000007bffffffffffffffffffffffffffffffffffffffffffffffffffffffff1916827bffffffffffffffffffffffffffffffffffffffffffffffffffffffff1916145b806120ce57506120cd82612639565b5b9050919050565b60008073ffffffffffffffffffffffffffffffffffffffff166002600084815260200190815260200160002060009054906101000a900473ffffffffffffffffffffffffffffffffffffffff1673ffffffffffffffffffffffffffffffffffffffff1614159050919050565b61214c8383836126a3565b505050565b505050565b61216083836121d5565b61216d6000848484612423565b6121ac576040517f08c379a00000000000000000000000000000000000000000000000000000000081526004016121a390614456565b60405180910390fd5b505050565b6001816000016000828254019250508190555050565b600081600001549050919050565b600073ffffffffffffffffffffffffffffffffffffffff168273ffffffffffffffffffffffffffffffffffffffff161415612245576040517f08c379a000000000000000000000000000000000000000000000000000000000815260040161223c906144e6565b60405180910390fd5b61224e816120d5565b1561228e576040517f08c379a000000000000000000000000000000000000000000000000000000000815260040161228590614552565b60405180910390fd5b61229a60008383612141565b6001600360008473ffffffffffffffffffffffffffffffffffffffff1673ffffffffffffffffffffffffffffffffffffffff16815260200190815260200160002060008282546122ea91906142b6565b92505081905550816002600083815260200190815260200160002060006101000a81548173ffffffffffffffffffffffffffffffffffffffff021916908373ffffffffffffffffffffffffffffffffffffffff160217905550808273ffffffffffffffffffffffffffffffffffffffff16600073ffffffffffffffffffffffffffffffffffffffff167fddf252ad1be2c89b69c2b068fc378daa952ba7f163c4a11628f55a4df523b3ef60405160405180910390a46123ab60008383612151565b5050565b6123b8826120d5565b6123f7576040517f08c379a00000000000000000000000000000000000000000000000000000000081526004016123ee906145e4565b60405180910390fd5b8060066000848152602001908152602001600020908051906020019061241e929190612c46565b505050565b60006124448473ffffffffffffffffffffffffffffffffffffffff166127b7565b156125ad578373ffffffffffffffffffffffffffffffffffffffff1663150b7a0261246d6117ba565b8786866040518563ffffffff1660e01b815260040161248f9493929190614659565b602060405180830381600087803b1580156124a957600080fd5b505af19250505080156124da57506040513d601f19601f820116820180604052508101906124d791906146ba565b60015b61255d573d806000811461250a576040519150601f19603f3d011682016040523d82523d6000602084013e61250f565b606091505b50600081511415612555576040517f08c379a000000000000000000000000000000000000000000000000000000000815260040161254c90614456565b60405180910390fd5b805181602001fd5b63150b7a0260e01b7bffffffffffffffffffffffffffffffffffffffffffffffffffffffff1916817bffffffffffffffffffffffffffffffffffffffffffffffffffffffff1916149150506125b2565b600190505b949350505050565b606060405180602001604052806000815250905090565b60606125dc8261176f565b60006125e66125ba565b905060008151116126065760405180602001604052806000815250612631565b80612610846127da565b604051602001612621929190614476565b6040516020818303038152906040525b915050919050565b60007f01ffc9a7000000000000000000000000000000000000000000000000000000007bffffffffffffffffffffffffffffffffffffffffffffffffffffffff1916827bffffffffffffffffffffffffffffffffffffffffffffffffffffffff1916149050919050565b6126ae83838361293b565b600073ffffffffffffffffffffffffffffffffffffffff168373ffffffffffffffffffffffffffffffffffffffff1614156126f1576126ec81612940565b612730565b8173ffffffffffffffffffffffffffffffffffffffff168373ffffffffffffffffffffffffffffffffffffffff161461272f5761272e8382612989565b5b5b600073ffffffffffffffffffffffffffffffffffffffff168273ffffffffffffffffffffffffffffffffffffffff1614156127735761276e81612af6565b6127b2565b8273ffffffffffffffffffffffffffffffffffffffff168273ffffffffffffffffffffffffffffffffffffffff16146127b1576127b08282612bc7565b5b5b505050565b6000808273ffffffffffffffffffffffffffffffffffffffff163b119050919050565b60606000821415612822576040518060400160405280600181526020017f30000000000000000000000000000000000000000000000000000000000000008152509050612936565b600082905060005b6000821461285457808061283d90613dc8565b915050600a8261284d9190614716565b915061282a565b60008167ffffffffffffffff8111156128705761286f6131a1565b5b6040519080825280601f01601f1916602001820160405280156128a25781602001600182028036833780820191505090505b5090505b6000851461292f576001826128bb9190613ed0565b9150600a856128ca9190614747565b60306128d691906142b6565b60f81b8183815181106128ec576128eb613b28565b5b60200101907effffffffffffffffffffffffffffffffffffffffffffffffffffffffffffff1916908160001a905350600a856129289190614716565b94506128a6565b8093505050505b919050565b505050565b600980549050600a600083815260200190815260200160002081905550600981908060018154018082558091505060019003906000526020600020016000909190919091505550565b6000600161299684610d38565b6129a09190613ed0565b9050600060086000848152602001908152602001600020549050818114612a85576000600760008673ffffffffffffffffffffffffffffffffffffffff1673ffffffffffffffffffffffffffffffffffffffff168152602001908152602001600020600084815260200190815260200160002054905080600760008773ffffffffffffffffffffffffffffffffffffffff1673ffffffffffffffffffffffffffffffffffffffff168152602001908152602001600020600084815260200190815260200160002081905550816008600083815260200190815260200160002081905550505b6008600084815260200190815260200160002060009055600760008573ffffffffffffffffffffffffffffffffffffffff1673ffffffffffffffffffffffffffffffffffffffff16815260200190815260200160002060008381526020019081526020016000206000905550505050565b60006001600980549050612b0a9190613ed0565b90506000600a6000848152602001908152602001600020549050600060098381548110612b3a57612b39613b28565b5b906000526020600020015490508060098381548110612b5c57612b5b613b28565b5b906000526020600020018190555081600a600083815260200190815260200160002081905550600a6000858152602001908152602001600020600090556009805480612bab57612baa614778565b5b6001900381819060005260206000200160009055905550505050565b6000612bd283610d38565b905081600760008573ffffffffffffffffffffffffffffffffffffffff1673ffffffffffffffffffffffffffffffffffffffff168152602001908152602001600020600083815260200190815260200160002081905550806008600084815260200190815260200160002081905550505050565b828054612c529061378a565b90600052602060002090601f016020900481019282612c745760008555612cbb565b82601f10612c8d57805160ff1916838001178555612cbb565b82800160010185558215612cbb579182015b82811115612cba578251825591602001919060010190612c9f565b5b509050612cc89190612ccc565b5090565b5b80821115612ce5576000816000905550600101612ccd565b5090565b6000604051905090565b600080fd5b600080fd5b60007fffffffff0000000000000000000000000000000000000000000000000000000082169050919050565b612d3281612cfd565b8114612d3d57600080fd5b50565b600081359050612d4f81612d29565b92915050565b600060208284031215612d6b57612d6a612cf3565b5b6000612d7984828501612d40565b91505092915050565b60008115159050919050565b612d9781612d82565b82525050565b6000602082019050612db26000830184612d8e565b92915050565b600081519050919050565b600082825260208201905092915050565b60005b83811015612df2578082015181840152602081019050612dd7565b83811115612e01576000848401525b50505050565b6000601f19601f8301169050919050565b6000612e2382612db8565b612e2d8185612dc3565b9350612e3d818560208601612dd4565b612e4681612e07565b840191505092915050565b60006020820190508181036000830152612e6b8184612e18565b905092915050565b6000819050919050565b612e8681612e73565b8114612e9157600080fd5b50565b600081359050612ea381612e7d565b92915050565b600060208284031215612ebf57612ebe612cf3565b5b6000612ecd84828501612e94565b91505092915050565b600081519050919050565b600082825260208201905092915050565b6000819050602082019050919050565b612f0b81612e73565b82525050565b6000612f1d8383612f02565b60208301905092915050565b6000602082019050919050565b6000612f4182612ed6565b612f4b8185612ee1565b9350612f5683612ef2565b8060005b83811015612f87578151612f6e8882612f11565b9750612f7983612f29565b925050600181019050612f5a565b5085935050505092915050565b60006020820190508181036000830152612fae8184612f36565b905092915050565b600073ffffffffffffffffffffffffffffffffffffffff82169050919050565b6000612fe182612fb6565b9050919050565b612ff181612fd6565b82525050565b600060208201905061300c6000830184612fe8565b92915050565b61301b81612fd6565b811461302657600080fd5b50565b60008135905061303881613012565b92915050565b6000806040838503121561305557613054612cf3565b5b600061306385828601613029565b925050602061307485828601612e94565b9150509250929050565b61308781612e73565b82525050565b60006020820190506130a2600083018461307e565b92915050565b600080604083850312156130bf576130be612cf3565b5b60006130cd85828601612e94565b92505060206130de85828601613029565b9150509250929050565b60008060006060848603121561310157613100612cf3565b5b600061310f86828701613029565b935050602061312086828701613029565b925050604061313186828701612e94565b9150509250925092565b60006020828403121561315157613150612cf3565b5b600061315f84828501613029565b91505092915050565b6000819050919050565b61317b81613168565b82525050565b60006020820190506131966000830184613172565b92915050565b600080fd5b7f4e487b7100000000000000000000000000000000000000000000000000000000600052604160045260246000fd5b6131d982612e07565b810181811067ffffffffffffffff821117156131f8576131f76131a1565b5b80604052505050565b600061320b612ce9565b905061321782826131d0565b919050565b600067ffffffffffffffff821115613237576132366131a1565b5b602082029050602081019050919050565b600080fd5b600061326061325b8461321c565b613201565b9050808382526020820190506020840283018581111561328357613282613248565b5b835b818110156132ac57806132988882612e94565b845260208401935050602081019050613285565b5050509392505050565b600082601f8301126132cb576132ca61319c565b5b81356132db84826020860161324d565b91505092915050565b600080604083850312156132fb576132fa612cf3565b5b600083013567ffffffffffffffff81111561331957613318612cf8565b5b613325858286016132b6565b925050602061333685828601613029565b9150509250929050565b61334981612d82565b811461335457600080fd5b50565b60008135905061336681613340565b92915050565b6000806040838503121561338357613382612cf3565b5b600061339185828601613029565b92505060206133a285828601613357565b9150509250929050565b6133b581613168565b81146133c057600080fd5b50565b6000813590506133d2816133ac565b92915050565b600080fd5b600067ffffffffffffffff8211156133f8576133f76131a1565b5b61340182612e07565b9050602081019050919050565b82818337600083830152505050565b600061343061342b846133dd565b613201565b90508281526020810184848401111561344c5761344b6133d8565b5b61345784828561340e565b509392505050565b600082601f8301126134745761347361319c565b5b813561348484826020860161341d565b91505092915050565b6000806000606084860312156134a6576134a5612cf3565b5b60006134b4868287016133c3565b935050602084013567ffffffffffffffff8111156134d5576134d4612cf8565b5b6134e18682870161345f565b925050604084013567ffffffffffffffff81111561350257613501612cf8565b5b61350e8682870161345f565b9150509250925092565b600067ffffffffffffffff821115613533576135326131a1565b5b61353c82612e07565b9050602081019050919050565b600061355c61355784613518565b613201565b905082815260208101848484011115613578576135776133d8565b5b61358384828561340e565b509392505050565b600082601f8301126135a05761359f61319c565b5b81356135b0848260208601613549565b91505092915050565b600080600080608085870312156135d3576135d2612cf3565b5b60006135e187828801613029565b94505060206135f287828801613029565b935050604061360387828801612e94565b925050606085013567ffffffffffffffff81111561362457613623612cf8565b5b6136308782880161358b565b91505092959194509250565b6000806040838503121561365357613652612cf3565b5b600061366185828601612e94565b9250506020613672858286016133c3565b9150509250929050565b6000806000806080858703121561369657613695612cf3565b5b60006136a487828801612e94565b94505060206136b5878288016133c3565b935050604085013567ffffffffffffffff8111156136d6576136d5612cf8565b5b6136e28782880161345f565b925050606085013567ffffffffffffffff81111561370357613702612cf8565b5b61370f8782880161345f565b91505092959194509250565b6000806040838503121561373257613731612cf3565b5b600061374085828601613029565b925050602061375185828601613029565b9150509250929050565b7f4e487b7100000000000000000000000000000000000000000000000000000000600052602260045260246000fd5b600060028204905060018216806137a257607f821691505b602082108114156137b6576137b561375b565b5b50919050565b7f4552433732313a20617070726f76616c20746f2063757272656e74206f776e6560008201527f7200000000000000000000000000000000000000000000000000000000000000602082015250565b6000613818602183612dc3565b9150613823826137bc565b604082019050919050565b600060208201905081810360008301526138478161380b565b9050919050565b7f4552433732313a20617070726f76652063616c6c6572206973206e6f7420746f60008201527f6b656e206f776e6572206e6f7220617070726f76656420666f7220616c6c0000602082015250565b60006138aa603e83612dc3565b91506138b58261384e565b604082019050919050565b600060208201905081810360008301526138d98161389d565b9050919050565b7f4f6e6c792074686973206865616c74685265636f72644164647265737320636160008201527f6e20646f20746869730000000000000000000000000000000000000000000000602082015250565b600061393c602983612dc3565b9150613947826138e0565b604082019050919050565b6000602082019050818103600083015261396b8161392f565b9050919050565b7f4552433732313a2063616c6c6572206973206e6f7420746f6b656e206f776e6560008201527f72206e6f7220617070726f766564000000000000000000000000000000000000602082015250565b60006139ce602e83612dc3565b91506139d982613972565b604082019050919050565b600060208201905081810360008301526139fd816139c1565b9050919050565b7f455243373231456e756d657261626c653a206f776e657220696e646578206f7560008201527f74206f6620626f756e6473000000000000000000000000000000000000000000602082015250565b6000613a60602b83612dc3565b9150613a6b82613a04565b604082019050919050565b60006020820190508181036000830152613a8f81613a53565b9050919050565b7f455243373231456e756d657261626c653a20676c6f62616c20696e646578206f60008201527f7574206f6620626f756e64730000000000000000000000000000000000000000602082015250565b6000613af2602c83612dc3565b9150613afd82613a96565b604082019050919050565b60006020820190508181036000830152613b2181613ae5565b9050919050565b7f4e487b7100000000000000000000000000000000000000000000000000000000600052603260045260246000fd5b7f4552433732313a20696e76616c696420746f6b656e2049440000000000000000600082015250565b6000613b8d601883612dc3565b9150613b9882613b57565b602082019050919050565b60006020820190508181036000830152613bbc81613b80565b9050919050565b7f4552433732313a2061646472657373207a65726f206973206e6f74206120766160008201527f6c6964206f776e65720000000000000000000000000000000000000000000000602082015250565b6000613c1f602983612dc3565b9150613c2a82613bc3565b604082019050919050565b60006020820190508181036000830152613c4e81613c12565b9050919050565b7f507265736372697074696f6e20697320616c7265616479206c6f636b65640000600082015250565b6000613c8b601e83612dc3565b9150613c9682613c55565b602082019050919050565b60006020820190508181036000830152613cba81613c7e565b9050919050565b7f4e6f74206f776e6572206f6620507265736372697074696f6e00000000000000600082015250565b6000613cf7601983612dc3565b9150613d0282613cc1565b602082019050919050565b60006020820190508181036000830152613d2681613cea565b9050919050565b7f43616e6e6f74206c6f636b20507265736372697074696f6e20486973746f7279600082015250565b6000613d63602083612dc3565b9150613d6e82613d2d565b602082019050919050565b60006020820190508181036000830152613d9281613d56565b9050919050565b7f4e487b7100000000000000000000000000000000000000000000000000000000600052601160045260246000fd5b6000613dd382612e73565b91507fffffffffffffffffffffffffffffffffffffffffffffffffffffffffffffffff821415613e0657613e05613d99565b5b600182019050919050565b600081905092915050565b6000613e2782612db8565b613e318185613e11565b9350613e41818560208601612dd4565b80840191505092915050565b6000613e598284613e1c565b915081905092915050565b7f4461746120496e74656772697479206661696c00000000000000000000000000600082015250565b6000613e9a601383612dc3565b9150613ea582613e64565b602082019050919050565b60006020820190508181036000830152613ec981613e8d565b9050919050565b6000613edb82612e73565b9150613ee683612e73565b925082821015613ef957613ef8613d99565b5b828203905092915050565b7f43616e6e6f742075706461746520507265736372697074696f6e20486973746f60008201527f7279000000000000000000000000000000000000000000000000000000000000602082015250565b6000613f60602283612dc3565b9150613f6b82613f04565b604082019050919050565b60006020820190508181036000830152613f8f81613f53565b9050919050565b7f507265736372697074696f6e206973206c6f636b656400000000000000000000600082015250565b6000613fcc601683612dc3565b9150613fd782613f96565b602082019050919050565b60006020820190508181036000830152613ffb81613fbf565b9050919050565b7f4e6f7420746865206f776e6572206f662074686520507265736372697074696f60008201527f6e00000000000000000000000000000000000000000000000000000000000000602082015250565b600061405e602183612dc3565b915061406982614002565b604082019050919050565b6000602082019050818103600083015261408d81614051565b9050919050565b7f4461746120696e74656772697479206661696c75726500000000000000000000600082015250565b60006140ca601683612dc3565b91506140d582614094565b602082019050919050565b600060208201905081810360008301526140f9816140bd565b9050919050565b7f4f776e61626c653a206e6577206f776e657220697320746865207a65726f206160008201527f6464726573730000000000000000000000000000000000000000000000000000602082015250565b600061415c602683612dc3565b915061416782614100565b604082019050919050565b6000602082019050818103600083015261418b8161414f565b9050919050565b7f4552433732313a207472616e736665722066726f6d20696e636f72726563742060008201527f6f776e6572000000000000000000000000000000000000000000000000000000602082015250565b60006141ee602583612dc3565b91506141f982614192565b604082019050919050565b6000602082019050818103600083015261421d816141e1565b9050919050565b7f4552433732313a207472616e7366657220746f20746865207a65726f2061646460008201527f7265737300000000000000000000000000000000000000000000000000000000602082015250565b6000614280602483612dc3565b915061428b82614224565b604082019050919050565b600060208201905081810360008301526142af81614273565b9050919050565b60006142c182612e73565b91506142cc83612e73565b9250827fffffffffffffffffffffffffffffffffffffffffffffffffffffffffffffffff0382111561430157614300613d99565b5b828201905092915050565b7f4f776e61626c653a2063616c6c6572206973206e6f7420746865206f776e6572600082015250565b6000614342602083612dc3565b915061434d8261430c565b602082019050919050565b6000602082019050818103600083015261437181614335565b9050919050565b7f4552433732313a20617070726f766520746f2063616c6c657200000000000000600082015250565b60006143ae601983612dc3565b91506143b982614378565b602082019050919050565b600060208201905081810360008301526143dd816143a1565b9050919050565b7f4552433732313a207472616e7366657220746f206e6f6e20455243373231526560008201527f63656976657220696d706c656d656e7465720000000000000000000000000000602082015250565b6000614440603283612dc3565b915061444b826143e4565b604082019050919050565b6000602082019050818103600083015261446f81614433565b9050919050565b60006144828285613e1c565b915061448e8284613e1c565b91508190509392505050565b7f4552433732313a206d696e7420746f20746865207a65726f2061646472657373600082015250565b60006144d0602083612dc3565b91506144db8261449a565b602082019050919050565b600060208201905081810360008301526144ff816144c3565b9050919050565b7f4552433732313a20746f6b656e20616c7265616479206d696e74656400000000600082015250565b600061453c601c83612dc3565b915061454782614506565b602082019050919050565b6000602082019050818103600083015261456b8161452f565b9050919050565b7f45524337323155524953746f726167653a2055524920736574206f66206e6f6e60008201527f6578697374656e7420746f6b656e000000000000000000000000000000000000602082015250565b60006145ce602e83612dc3565b91506145d982614572565b604082019050919050565b600060208201905081810360008301526145fd816145c1565b9050919050565b600081519050919050565b600082825260208201905092915050565b600061462b82614604565b614635818561460f565b9350614645818560208601612dd4565b61464e81612e07565b840191505092915050565b600060808201905061466e6000830187612fe8565b61467b6020830186612fe8565b614688604083018561307e565b818103606083015261469a8184614620565b905095945050505050565b6000815190506146b481612d29565b92915050565b6000602082840312156146d0576146cf612cf3565b5b60006146de848285016146a5565b91505092915050565b7f4e487b7100000000000000000000000000000000000000000000000000000000600052601260045260246000fd5b600061472182612e73565b915061472c83612e73565b92508261473c5761473b6146e7565b5b828204905092915050565b600061475282612e73565b915061475d83612e73565b92508261476d5761476c6146e7565b5b828206905092915050565b7f4e487b7100000000000000000000000000000000000000000000000000000000600052603160045260246000fdfea2646970667358221220ac8654181939b1b7ac82bc1ab34cd0b0eb37877d7b777150ed8c53ce617abf3864736f6c63430008090033",
  "linkReferences": {},
  "deployedLinkReferences": {}
}